:100000000C9434000C9449000C9449000C94490061
:100010000C9449000C9449000C9449000C9449003C
:100020000C9449000C9449000C9449000C9449002C
:100030000C9449000C9449000C9449000C9449001C
:100040000C9449000C9449000C9449000C9449000C
:100050000C9449000C9449000C9449000C944900FC
:100060000C9449000C94490011241FBECFEFD8E036
:10007000DEBFCDBF11E0A0E0B1E0E4E5F1E002C0F9
:1000800005900D92A030B107D9F70E9499000C9409
:10009000A8000C940000EFE4F3EC3197F1F700C0F6
:1000A00000008B3509F158F4873091F118F486304F
:1000B000B9F008958F3381F08F34D1F008958D36E3
:1000C000F9F028F48636C1F0873651F108958D375E
:1000D000D9F08F3709F1089586E0FB0180830895F8
:1000E0008BE5FB01808308958FE4FB0180830895F5
:1000F00086E6FB01808308958DE6FB0180830895E9
:100100008DE7FB018083089587E0FB0180830895DC
:100110008FE7FB018083089587E6FB0180830895C4
:10012000FB018FE3808385B165E270E00E944B00A4
:1001300008958FE78AB98FE38BB99FEF94B985B99A
:100140004F9BFECF8BB16BE270E00E944B00F8CF6B
:04015000F894FFCF51
:00000001FF
