:100000000C9434000C943E000C943E000C943E0082
:100010000C943E000C948B000C943E000C943E001B
:100020000C943E000C943E000C943E000C943E0058
:100030000C943E000C943E000C943E000C943E0048
:100040000C943E000C943E000C943E000C943E0038
:100050000C943E000C943E000C943E000C943E0028
:100060000C943E000C943E0011241FBECFEFD8E04C
:10007000DEBFCDBF0E94B4000C94C7000C940000FA
:100080008B3509F158F4873091F118F48630B9F0C6
:1000900008958F3381F08F34D1F008958D36F9F0C3
:1000A00028F48636C1F0873651F108958D37D9F09E
:1000B0008F3709F1089586E0FB01808308958BE571
:1000C000FB01808308958FE4FB018083089586E619
:1000D000FB01808308958DE6FB01808308958DE701
:1000E000FB018083089587E0FB01808308958FE7FB
:1000F000FB018083089587E6FB01808308958FE3E9
:10010000FB0180836B32710529F485B165E270E0F3
:100110000E94400008951F920F920FB60F92112473
:100120002F933F934F935F936F937F938F939F93FF
:10013000AF93BF93EF93FF934F9B05C08BB16BE2DF
:1001400070E00E944000FF91EF91BF91AF919F91AD
:100150008F917F916F915F914F913F912F910F9070
:100160000FBE0F901F9018958FE78AB98FE38BB958
:100170009FEF94B985B9EDE6F0E0808180688083D7
:10018000E8E6F0E08081846080837894FFCFF89483
:02019000FFCF9F
:00000001FF
