S01C0000666F746F73656E736F7256656C6F6369646164652E73726563C6
S11300000C9434000C94B9000C94C7000C94510067
S11300100C9451000C9451000C9451000C94510018
S11300200C9451000C9451000C9451000C94510008
S11300300C9451000C9451000C9451000C945100F8
S11300400C9400010C9451000C9451000C94510038
S11300500C9451000C9451000C9451000C945100D8
S11300600C9451000C94510011241FBECFEFD8E022
S1130070DEBFCDBF11E0A0E0B1E0EAEAFAE002C0E1
S113008005900D92A430B107D9F721E0A4E0B1E0C6
S113009001C01D92A630B207E1F70E9417010C942B
S11300A053050C94000085B9409A4198429A8FE315
S11300B09CE90197F1F700C000004298089585B9C2
S11300C040984198429A8FE19EE40197F1F700C06D
S11300D0000042980895CF92DF92EF92FF920F931F
S11300E01F93CF93DF9300D01F92CDB7DEB79F93BA
S11300F08F9380E091E09F938F938E010F5F1F4F4A
S11301001F930F930E94690278010F900F900F9034
S11301100F900F900F9000E010E0670107C0F70107
S113012081917F010E9453000F5F1F4FF6010190E0
S11301300020E9F73197EC19FD090E171F0778F332
S11301400F900F900F90DF91CF911F910F91FF901F
S1130150EF90DF90CF90089588E30E945F008EE0D7
S11301600E945F0086E00E945F0081E00E945F00C1
S113017008951F920F920FB60F9211241092050149
S1130180109204010F900FBE0F901F9018951F92AC
S11301900F920FB60F9211242F933F934F935F93B7
S11301A06F937F938F939F93AF93BF93EF93FF933B
S11301B06091040170910501072E000C880B990BC6
S11301C00E94DD019B01AC0160E070EC88E296E4E2
S11301D00E9433010E94A501CB010E946B00FF9194
S11301E0EF91BF91AF919F918F917F916F915F91AB
S11301F04F913F912F910F900FBE0F901F90189524
S11302001F920F920FB60F9211248F939F93809198
S113021004019091050101969093050180930401D6
S11302209F918F910F900FBE0F901F9018951AB841
S11302308CE08BB98FEF84B997E097B985B9E9E67B
S1130240F0E08081826080838DB383608DBBEEE6B5
S1130250F0E080818160808378940E94AC0085B551
S1130260846085BDFFCF0E9447010C942F020E9439
S1130270280258F00E94210240F029F45F3F29F03F
S11302800C94180251110C9463020C941E020E94E7
S1130290400268F39923B1F3552391F3951B550B51
S11302A0BB27AA2762177307840738F09F5F5F4F45
S11302B0220F331F441FAA1FA9F335D00E2E3AF084
S11302C0E0E832D091505040E695001CCAF72BD09C
S11302D0FE2F29D0660F771F881FBB1F26173707ED
S11302E04807AB07B0E809F0BB0B802DBF01FF271F
S11302F093585F4F3AF09E3F510578F00C941802E2
S11303000C9463025F3FE4F3983ED4F386957795AB
S11303106795B795F7959F5FC9F7880F911D9695D7
S1130320879597F90895E1E0660F771F881FBB1F33
S1130330621773078407BA0720F0621B730B840BE0
S1130340BA0BEE1F88F7E09508950E94AC016894FB
S1130350B1110C94630208950E94480288F09F57DB
S113036098F0B92F9927B751B0F0E1F0660F771FD5
S1130370881F991F1AF0BA95C9F714C0B13091F0CB
S11303800E946202B1E008950C946202672F782FF4
S11303908827B85F39F0B93FCCF386957795679590
S11303A0B395D9F73EF490958095709561957F4FFC
S11303B08F4F9F4F0895E89409C097FB3EF49095A2
S11303C08095709561957F4F8F4F9F4F9923A9F02A
S11303D0F92F96E9BB279395F695879577956795B9
S11303E0B795F111F8CFFAF4BB0F11F460FF1BC0FD
S11303F06F5F7F4F8F4F9F4F16C0882311F096E990
S113040011C0772321F09EE8872F762F05C066233D
S113041071F096E8862F70E060E02AF09A95660FF6
S1130420771F881FDAF7880F9695879597F90895AF
S113043097F99F6780E870E060E008959FEF80EC93
S1130440089500240A941616170618060906089536
S113045000240A9412161306140605060895092E9C
S11304600394000C11F4882352F0BB0F40F4BF2B0B
S113047011F460FF04C06F5F7F4F8F4F9F4F08954B
S113048057FD9058440F551F59F05F3F71F0479541
S1130490880F97FB991F61F09F3F79F08795089526
S11304A0121613061406551FF2CF4695F1DF08C045
S11304B0161617061806991FF1CF86957105610562
S11304C008940895E894BB2766277727CB0197F90A
S11304D00895AEE0B0E0EFE6F2E00C942A050D8951
S11304E01E8986E08C831A8309838FEF9FE79E839E
S11304F08D83AE01475E5F4F6F89788DCE01019683
S11305000E948B02EF81F885E00FF11F10822E9676
S1130510E4E00C944605ABE0B0E0E1E9F2E00C94D1
S11305201C056C017B018A01FC0117821682838100
S113053081FFCCC1CE0101963C01F6019381F70104
S113054093FD859193FF81917F01882309F4BAC1BA
S1130550853239F493FD859193FF81917F01853232
S113056029F4B60190E00E948204E7CF912C212C5B
S1130570312CFFE1F315D8F08B3279F038F4803266
S113058079F08332A1F4232D20611DC08D3261F0F6
S1130590803369F4232D216016C0832D8260382EA8
S11305A0E32DE4603E2E2AC0F32DF8601DC037FC15
S11305B02DC020ED280F2A3040F08E32B9F436FCDD
S11305C081C1232D2064322E19C036FE06C08AE074
S11305D0989E200D1124922E11C0EAE02E9E200D2B
S11305E01124222EF32DF0623F2E08C08C3621F404
S11305F0832D8068382E02C0883641F4F70193FDBC
S1130600859193FF81917F018111B3CF982F9F7DB5
S11306109554933028F40C5F1F4F9FE399830DC0CA
S1130620833631F0833771F0833509F059C021C026
S1130630F801808189830E5F1F4F88248394912C55
S1130640530113C02801F2E04F0E511CF801A080A1
S1130650B18036FE03C0692D70E002C06FEF7FEFFA
S1130660C5010E9477044C018201F32DFF773F2ED0
S113067016C0280122E0420E511CF801A080B1806E
S113068036FE03C0692D70E002C06FEF7FEFC50135
S11306900E946C044C01F32DF0683F2E820133FC60
S11306A01BC0822D90E088169906B0F4B60180E252
S11306B090E00E9482042A94F4CFF50137FC8591DE
S11306C037FE81915F01B60190E00E9482042110FF
S11306D02A9421E0821A91088114910471F7E8C0E8
S11306E0843611F0893641F5F80137FE07C0608180
S11306F07181828193810C5F1F4F08C06081718179
S1130700072E000C880B990B0E5F1F4FF32DFF76FD
S11307103F2E97FF09C090958095709561957F4F06
S11307208F4F9F4FF0683F2E2AE030E0A3010E94D4
S1130730BE04882E861845C0853731F4232D2F7EBC
S1130740B22E2AE030E025C0932D997FB92E8F3642
S1130750C1F018F4883579F0B5C0803719F08837BE
S113076021F0B0C0E92FE061BE2EB4FE0DC0FB2D18
S1130770F460BF2E09C034FE0AC0292F2660B22EB1
S113078006C028E030E005C020E130E002C020E1EE
S113079032E0F801B7FE07C06081718182819381E4
S11307A00C5F1F4F06C06081718180E090E00E5F96
S11307B01F4FA3010E94BE04882E8618FB2DFF77CD
S11307C03F2E36FE0DC0232D2E7FA22E891458F401
S11307D034FE0BC032FC09C0832D8E7EA82E05C0CA
S11307E0B82CA32C03C0B82C01C0B92CA4FE0FC094
S11307F0FE01E80DF11D8081803321F49A2D997E4C
S1130800A92E09C0A2FE06C0B394B39404C08A2DD5
S1130810867809F0B394A3FC11C0A0FE06C0B214FC
S113082088F4280C922C9B180EC0B21460F4B60104
S113083080E290E00E948204B394F7CFB21418F4DB
S11308402B1802C0982C212CA4FE10C0B60180E302
S113085090E00E948204A2FE17C0A1FC03C088E7B6
S113086090E002C088E590E0B6010CC08A2D86783D
S113087059F0A1FE02C08BE201C080E2A7FC8DE228
S1130880B60190E00E948204891438F4B60180E332
S113089090E00E9482049A94F7CF8A94F301E80DC1
S11308A0F11D8081B60190E00E9482048110F5CF91
S11308B0222009F442CEB60180E290E00E94820434
S11308C02A94F6CFF6018681978102C08FEF9FEFBD
S11308D02B96E2E10C943805FC01059061507040C0
S11308E00110D8F7809590958E0F9F1F0895FC01F5
S11308F06150704001900110D8F7809590958E0F4B
S11309009F1F08950F931F93CF93DF93FB012381C0
S113091021FD03C08FEF9FEF2CC022FF16C046813C
S11309205781248135814217530744F4A081B18152
S11309309D012F5F3F4F318320838C932681378124
S11309402F5F3F4F3783268314C08B01EC01FB01DB
S11309500084F185E02D0995892BE1F6D8011696DE
S11309608D919C911797019617969C938E93169749
S1130970CE01DF91CF911F910F910895FA01AA271B
S1130980283051F1203181F1E8946F936E7F6E5FCE
S11309907F4F8F4F9F4FAF4FB1E03ED0B4E03CD07C
S11309A0670F781F891F9A1FA11D680F791F8A1F5F
S11309B0911DA11D6A0F711D811D911DA11D20D0C6
S11309C009F468943F912AE0269F11243019305D80
S11309D03193DEF6CF010895462F4770405D419371
S11309E0B3E00FD0C9F7F6CF462F4F70405D4A33BE
S11309F018F0495D31FD4052419302D0A9F7EACF86
S1130A00B4E0A6959795879577956795BA95C9F7B4
S1130A1000976105710508959B01AC010A2E0694A7
S1130A205795479537952795BA95C9F7620F731F60
S1130A30841F951FA01D08952F923F924F925F929D
S1130A406F927F928F929F92AF92BF92CF92DF92DA
S1130A50EF92FF920F931F93CF93DF93CDB7DEB73F
S1130A60CA1BDB0B0FB6F894DEBF0FBECDBF0994D3
S1130A702A88398848885F846E847D848C849B842A
S1130A80AA84B984C884DF80EE80FD800C811B8138
S1130A90AA81B981CE0FD11D0FB6F894DEBF0FBE67
S10D0AA0CDBFED010895F894FFCFD7
S1070AAA25640000BB
S9030000FC
