S0180000696E746572666163652D73657269616C2E73726563AE
S11300000C9434000C94AD000C94D2000C94460073
S11300100C9446000C9446000C9446000C94460044
S11300200C9446000C9446000C9446000C94460034
S11300300C9446000C9446000C9446000C94460024
S11300400C9446000C9446000C947F000C944600DB
S11300500C9446000C9446000C9446000C94460004
S11300600C9446000C94460011241FBECFEFD8E038
S1130070DEBFCDBF21E0A0E0B1E001C01D92A13000
S1130080B207E1F70E94F7000C940F010C940000F2
S113009085B9409A4198429A87E893E10197F1F72C
S11300A000C000004298089585B940984198429A4A
S11300B083EC99E00197F1F700C00000429808959D
S11300C088E30E9454008EE00E94540086E00E945F
S11300D0540081E00E94540008959093C5008093D9
S11300E0C400E1ECF0E080818861808380818068D5
S11300F08083E2ECF0E080818660808308951F9223
S11301000F920FB60F9211242F933F934F935F9347
S11301106F937F938F939F93AF93BF93EF93FF93CB
S1130120E6ECF0E0808180930001809100018083FF
S1130130809100010E944800FF91EF91BF91AF911F
S11301409F918F917F916F915F914F913F912F91EB
S11301500F900FBE0F901F9018951F920F920FB61D
S11301600F9211242F933F934F935F936F937F9339
S11301708F939F93AF93BF93EF93FF9381E40E9478
S11301804800FF91EF91BF91AF919F918F917F9123
S11301906F915F914F913F912F910F900FBE0F90F0
S11301A01F9018951F920F920FB60F9211242F9340
S11301B03F934F935F936F937F938F939F93AF93EB
S11301C0BF93EF93FF9382E40E944800FF91EF9165
S11301D0BF91AF919F918F917F916F915F914F915B
S11301E03F912F910F900FBE0F901F9018951AB842
S11301F08CE08BB98CE090E00E946D008FEF84B9A5
S113020097E097B985B9E9E6F0E080818260808360
S11302108DB383608DBB78940E946000FFCFF89407
S1050220FFCF0A
S9030000FC
