S00E000070756C736F732E7372656370
S11300000C9434000C9473000C943E000C943E0049
S11300100C943E000C943E000C943E000C943E0064
S11300200C943E000C943E000C943E000C943E0054
S11300300C943E000C943E000C943E000C943E0044
S11300400C943E000C943E000C943E000C943E0034
S11300500C943E000C943E000C943E000C943E0024
S11300600C943E000C943E0011241FBECFEFD8E048
S1130070DEBFCDBF0E94B1000C94BF000C94000001
S1130080181619066CF420E030E0EFECF7E0319735
S1130090F1F700C000002F5F3F4F82179307A9F7C5
S11300A0089545B121E030E0B90102C0660F771F21
S11300B08A95E2F7CB01462B45B995B18095892302
S11300C085B90895CF93DF93EC0180E090E00E941E
S11300D05100CE010E94400081E090E00E94510056
S11300E0DF91CF9108951F920F920FB60F921124B2
S11300F02F933F934F935F936F937F938F939F932C
S1130100AF93BF93EF93FF9388E691E00E94620060
S113011088EE93E00E94400084EB90E00E9462002D
S113012088EE93E00E94400084E191E00E94620026
S113013088EE93E00E94400086E990E00E9462000D
S1130140FF91EF91BF91AF919F918F917F916F91AB
S11301505F914F913F912F910F900FBE0F901F9081
S113016018958FEF84B915B81AB88CE08BB9E9E605
S1130170F0E0808182608083E89A7894FFCFF894DD
S1050180FFCFAB
S9030000FC
