S00E000070756C736F732E7372656370
S11300000C9434000C94CD000C943E000C943E00EF
S11300100C943E000C943E000C943E000C943E0064
S11300200C943E000C943E000C943E000C943E0054
S11300300C943E000C943E000C943E000C943E0044
S11300400C943E000C943E000C943E000C943E0034
S11300500C943E000C943E000C943E000C943E0024
S11300600C943E000C943E0011241FBECFEFD8E048
S1130070DEBFCDBF0E9407010C94B7020C940000B0
S1130080181619066CF420E030E0EFECF7E0319735
S1130090F1F700C000002F5F3F4F82179307A9F7C5
S11300A00895CF92DF92EF92FF92CF93DF93EB010B
S11300B028EE33E0AC01429FC001439F900D529F54
S11300C0900D1124BC01990F880B990B0E94BE015D
S11300D026E636E646E650E40E944A026B017C01BD
S11300E0BE01DD0F880B990B0E94BE019B01AC0180
S11300F0C701B6010E9414010E948601CB01DF9161
S1130100CF91FF90EF90DF90CF90089545B121E01B
S113011030E0B90102C0660F771F8A95E2F7CB0180
S1130120462B45B995B18095892385B90895CF9318
S1130130DF93EC0180E090E00E948600CE010E94F3
S1130140400081E090E00E948600DF91CF91089505
S11301508530910519F42C9A2D9A089584309105CF
S113016019F42C982D9A0895039719F42C9A2D9824
S113017008952C982D980895CF93DF93EC010E9455
S113018051000E949700CE010E94A80088EE93E0DF
S11301900E944000DF91CF9108951F920F920FB6F5
S11301A00F9211242F933F934F935F936F937F93F9
S11301B08F939F93AF93BF93EF93FF9362E370E0AA
S11301C084E090E00E94BC0063E670E085E090E08B
S11301D00E94BC0064E170E083E090E00E94BC00F7
S11301E068E370E084E090E00E94BC00FF91EF912E
S11301F0BF91AF919F918F917F916F915F914F913B
S11302003F912F910F900FBE0F901F9018958FEF75
S113021084B915B81AB81BB8E9E6F0E080818260A9
S11302208083E89A7894FFCF0E9428010C941002EE
S11302300E94090258F00E94020240F029F45F3F34
S113024029F00C94F90151110C9444020C94FF010F
S11302500E94210268F39923B1F3552391F3951B6E
S1130260550BBB27AA2762177307840738F09F5FD3
S11302705F4F220F331F441FAA1FA9F335D00E2E40
S11302803AF0E0E832D091505040E695001CCAF7AD
S11302902BD0FE2F29D0660F771F881FBB1F261770
S11302A037074807AB07B0E809F0BB0B802DBF0147
S11302B0FF2793585F4F3AF09E3F510578F00C9416
S11302C0F9010C9444025F3FE4F3983ED4F386951D
S11302D077956795B795F7959F5FC9F7880F911D37
S11302E09695879597F90895E1E0660F771F881F23
S11302F0BB1F621773078407BA0720F0621B730BD6
S1130300840BBA0BEE1F88F7E09508950E948D01C7
S11303106894B1110C94440208950E94290288F053
S11303209F5798F0B92F9927B751B0F0E1F0660FB5
S1130330771F881F991F1AF0BA95C9F714C0B130F6
S113034091F00E944302B1E008950C944302672F98
S1130350782F8827B85F39F0B93FCCF38695779525
S11303606795B395D9F73EF490958095709561950E
S11303707F4F8F4F9F4F0895E89409C097FB3EF439
S113038090958095709561957F4F8F4F9F4F9923DE
S1130390A9F0F92F96E9BB279395F695879577955C
S11303A06795B795F111F8CFFAF4BB0F11F460FF1C
S11303B01BC06F5F7F4F8F4F9F4F16C0882311F074
S11303C096E911C0772321F09EE8872F762F05C088
S11303D0662371F096E8862F70E060E02AF09A9523
S11303E0660F771F881FDAF7880F9695879597F918
S11303F0089597F99F6780E870E060E008959FEFA3
S113040080EC089500240A941616170618060906A7
S1130410089500240A941216130614060506089576
S1130420092E0394000C11F4882352F0BB0F40F4FE
S1130430BF2B11F460FF04C06F5F7F4F8F4F9F4F3E
S1130440089557FD9058440F551F59F05F3F71F0C0
S11304504795880F97FB991F61F09F3F79F0879527
S11304600895121613061406551FF2CF4695F1DFB0
S113047008C0161617061806991FF1CF8695710540
S1130480610508940895E894BB2766277727CB0174
S113049097F908950E945D020C9410020E940202D2
S11304A038F00E94090220F0952311F00C94F90110
S11304B00C94FF0111240C9444020E94210270F355
S11304C0959FC1F3950F50E0551F629FF001729FF5
S11304D0BB27F00DB11D639FAA27F00DB11DAA1F04
S11304E0649F6627B00DA11D661F829F2227B00D51
S11304F0A11D621F739FB00DA11D621F839FA00DDC
S1130500611D221F749F3327A00D611D231F849F2B
S1130510600D211D822F762F6A2F11249F57504082
S11305209AF0F1F088234AF0EE0FFF1FBB1F661FFD
S1130530771F881F91505040A9F79E3F510580F0C6
S11305400C94F9010C9444025F3FE4F3983ED4F315
S1130550869577956795B795F795E7959F5FC1F76A
S1130560FE2B880F911D9695879597F90895F89419
S1050570FFCFB7
S9030000FC
