:100000000C943E000C945B000C945B000C945B0021
:100010000C945B000C9483000C945B000C945B00CC
:100020000C945B000C945B000C945B000C945B00E4
:100030000C945B000C945B000C945B000C945B00D4
:100040000C945B000C945B000C945B000C945B00C4
:100050000C945B000C945B000C945B000C945B00B4
:100060000C945B000C945B00650068006B006E00F4
:100070007100740077007A007D00800011241FBE9B
:10008000CFEFD8E0DEBFCDBF11E0A0E0B1E0E2E904
:10009000F2E002C005900D92A230B107D9F721E03D
:1000A000A2E0B1E001C01D92AC30B207E1F70E94BE
:1000B000FE000C9447010C9400008A30910510F565
:1000C000FC01EC5CFF4F0C942D018FE38BB908957C
:1000D00086E08BB908958BE58BB908958FE48BB9D1
:1000E000089586E68BB908958DE68BB908958DE75E
:1000F0008BB9089587E08BB908958FE78BB9089580
:1001000087E68BB908951F920F920FB60F921124B4
:100110008F939F934F9B09C08091000190910101A3
:10012000019690930101809300019F918F910F9010
:100130000FBE0F901F9018958091020190910301BE
:100140008430910529F4109203011092020105C038
:100150000196909303018093020185B1807F85B958
:1001600025B181E090E00090020102C0880F991F44
:100170000A94E2F7822B85B9E0910201F091030124
:10018000EE0FFF1FEC5FFE4F808191810E945D00AA
:100190000895CF93DF93803127E2920724F01092E5
:1001A0000101109200010097C1F020E030E0CAE0A8
:1001B000D0E0BE010E941901F901EE0FFF1FEC5FB4
:1001C000FE4F918380832F5F3F4F862F972F00979D
:1001D00081F7243031051CF00EC020E030E0F90139
:1001E000EE0FFF1FEC5FFE4F118210822F5F3F4F1B
:1001F00024303105A4F3DF91CF9108958FE78AB9B8
:100200001BB88FEF84B981E085B9EDE6F0E080811D
:1002100080688083E8E6F0E0808184608083789461
:1002200080910001909101010E94C9000E949C00F0
:10023000F7CF97FB072E16F4009407D077FD09D06F
:100240000E94330107FC05D03EF4909581959F4FA5
:100250000895709561957F4F0895EE0FFF1F0590EB
:10026000F491E02D0994AA1BBB1B51E107C0AA1F02
:10027000BB1FA617B70710F0A61BB70B881F991F47
:100280005A95A9F780959095BC01CD010895F894F1
:02029000FFCF9E
:0202920006273D
:00000001FF
